{
  "contractName": "Certifications",
  "abi": [
    {
      "inputs": [
        {
          "components": [
            {
              "internalType": "string",
              "name": "eventName",
              "type": "string"
            },
            {
              "internalType": "string",
              "name": "dateOfIssuance",
              "type": "string"
            },
            {
              "internalType": "string",
              "name": "recieverName",
              "type": "string"
            },
            {
              "internalType": "string",
              "name": "certificateId",
              "type": "string"
            },
            {
              "internalType": "string",
              "name": "organizationId",
              "type": "string"
            },
            {
              "internalType": "string",
              "name": "organizationName",
              "type": "string"
            }
          ],
          "internalType": "struct Certifications.certDetails[]",
          "name": "_certificates",
          "type": "tuple[]"
        },
        {
          "internalType": "string[]",
          "name": "_hashes",
          "type": "string[]"
        }
      ],
      "name": "appendCertificates",
      "outputs": [],
      "stateMutability": "nonpayable",
      "type": "function"
    },
    {
      "inputs": [
        {
          "internalType": "string",
          "name": "_hash",
          "type": "string"
        }
      ],
      "name": "verifyCertification",
      "outputs": [
        {
          "components": [
            {
              "internalType": "string",
              "name": "eventName",
              "type": "string"
            },
            {
              "internalType": "string",
              "name": "dateOfIssuance",
              "type": "string"
            },
            {
              "internalType": "string",
              "name": "recieverName",
              "type": "string"
            },
            {
              "internalType": "string",
              "name": "certificateId",
              "type": "string"
            },
            {
              "internalType": "string",
              "name": "organizationId",
              "type": "string"
            },
            {
              "internalType": "string",
              "name": "organizationName",
              "type": "string"
            }
          ],
          "internalType": "struct Certifications.certDetails",
          "name": "",
          "type": "tuple"
        }
      ],
      "stateMutability": "view",
      "type": "function"
    }
  ],
  "bytecode": "0x608060405234801561001057600080fd5b50611384806100206000396000f3fe608060405234801561001057600080fd5b50600436106100365760003560e01c806384c791201461003b578063b09f3d891461006b575b600080fd5b61005560048036038101906100509190610839565b610087565b60405161006291906109ad565b60405180910390f35b61008560048036038101906100809190610ce8565b6104de565b005b61008f6106a9565b60008251116100d3576040517f08c379a00000000000000000000000000000000000000000000000000000000081526004016100ca90610dbd565b60405180910390fd5b600080836040516100e49190610e19565b9081526020016040518091039020600001805461010090610e5f565b905011610142576040517f08c379a000000000000000000000000000000000000000000000000000000000815260040161013990610f02565b60405180910390fd5b6000826040516101529190610e19565b90815260200160405180910390206040518060c001604052908160008201805461017b90610e5f565b80601f01602080910402602001604051908101604052809291908181526020018280546101a790610e5f565b80156101f45780601f106101c9576101008083540402835291602001916101f4565b820191906000526020600020905b8154815290600101906020018083116101d757829003601f168201915b5050505050815260200160018201805461020d90610e5f565b80601f016020809104026020016040519081016040528092919081815260200182805461023990610e5f565b80156102865780601f1061025b57610100808354040283529160200191610286565b820191906000526020600020905b81548152906001019060200180831161026957829003601f168201915b5050505050815260200160028201805461029f90610e5f565b80601f01602080910402602001604051908101604052809291908181526020018280546102cb90610e5f565b80156103185780601f106102ed57610100808354040283529160200191610318565b820191906000526020600020905b8154815290600101906020018083116102fb57829003601f168201915b5050505050815260200160038201805461033190610e5f565b80601f016020809104026020016040519081016040528092919081815260200182805461035d90610e5f565b80156103aa5780601f1061037f576101008083540402835291602001916103aa565b820191906000526020600020905b81548152906001019060200180831161038d57829003601f168201915b505050505081526020016004820180546103c390610e5f565b80601f01602080910402602001604051908101604052809291908181526020018280546103ef90610e5f565b801561043c5780601f106104115761010080835404028352916020019161043c565b820191906000526020600020905b81548152906001019060200180831161041f57829003601f168201915b5050505050815260200160058201805461045590610e5f565b80601f016020809104026020016040519081016040528092919081815260200182805461048190610e5f565b80156104ce5780601f106104a3576101008083540402835291602001916104ce565b820191906000526020600020905b8154815290600101906020018083116104b157829003601f168201915b5050505050815250509050919050565b8051825114610522576040517f08c379a000000000000000000000000000000000000000000000000000000000815260040161051990610f6e565b60405180910390fd5b60005b82518110156106a45782818151811061054157610540610f8e565b5b6020026020010151600083838151811061055e5761055d610f8e565b5b60200260200101516040516105739190610e19565b908152602001604051809103902060008201518160000190816105969190611173565b5060208201518160010190816105ac9190611173565b5060408201518160020190816105c29190611173565b5060608201518160030190816105d89190611173565b5060808201518160040190816105ee9190611173565b5060a08201518160050190816106049190611173565b5090505060008083838151811061061e5761061d610f8e565b5b60200260200101516040516106339190610e19565b9081526020016040518091039020600001805461064f90610e5f565b905011610691576040517f08c379a0000000000000000000000000000000000000000000000000000000008152600401610688906112b7565b60405180910390fd5b808061069c90611306565b915050610525565b505050565b6040518060c001604052806060815260200160608152602001606081526020016060815260200160608152602001606081525090565b6000604051905090565b600080fd5b600080fd5b600080fd5b600080fd5b6000601f19601f8301169050919050565b7f4e487b7100000000000000000000000000000000000000000000000000000000600052604160045260246000fd5b610746826106fd565b810181811067ffffffffffffffff821117156107655761076461070e565b5b80604052505050565b60006107786106df565b9050610784828261073d565b919050565b600067ffffffffffffffff8211156107a4576107a361070e565b5b6107ad826106fd565b9050602081019050919050565b82818337600083830152505050565b60006107dc6107d784610789565b61076e565b9050828152602081018484840111156107f8576107f76106f8565b5b6108038482856107ba565b509392505050565b600082601f8301126108205761081f6106f3565b5b81356108308482602086016107c9565b91505092915050565b60006020828403121561084f5761084e6106e9565b5b600082013567ffffffffffffffff81111561086d5761086c6106ee565b5b6108798482850161080b565b91505092915050565b600081519050919050565b600082825260208201905092915050565b60005b838110156108bc5780820151818401526020810190506108a1565b60008484015250505050565b60006108d382610882565b6108dd818561088d565b93506108ed81856020860161089e565b6108f6816106fd565b840191505092915050565b600060c083016000830151848203600086015261091e82826108c8565b9150506020830151848203602086015261093882826108c8565b9150506040830151848203604086015261095282826108c8565b9150506060830151848203606086015261096c82826108c8565b9150506080830151848203608086015261098682826108c8565b91505060a083015184820360a08601526109a082826108c8565b9150508091505092915050565b600060208201905081810360008301526109c78184610901565b905092915050565b600067ffffffffffffffff8211156109ea576109e961070e565b5b602082029050602081019050919050565b600080fd5b600080fd5b600080fd5b600060c08284031215610a2057610a1f610a00565b5b610a2a60c061076e565b9050600082013567ffffffffffffffff811115610a4a57610a49610a05565b5b610a568482850161080b565b600083015250602082013567ffffffffffffffff811115610a7a57610a79610a05565b5b610a868482850161080b565b602083015250604082013567ffffffffffffffff811115610aaa57610aa9610a05565b5b610ab68482850161080b565b604083015250606082013567ffffffffffffffff811115610ada57610ad9610a05565b5b610ae68482850161080b565b606083015250608082013567ffffffffffffffff811115610b0a57610b09610a05565b5b610b168482850161080b565b60808301525060a082013567ffffffffffffffff811115610b3a57610b39610a05565b5b610b468482850161080b565b60a08301525092915050565b6000610b65610b60846109cf565b61076e565b90508083825260208201905060208402830185811115610b8857610b876109fb565b5b835b81811015610bcf57803567ffffffffffffffff811115610bad57610bac6106f3565b5b808601610bba8982610a0a565b85526020850194505050602081019050610b8a565b5050509392505050565b600082601f830112610bee57610bed6106f3565b5b8135610bfe848260208601610b52565b91505092915050565b600067ffffffffffffffff821115610c2257610c2161070e565b5b602082029050602081019050919050565b6000610c46610c4184610c07565b61076e565b90508083825260208201905060208402830185811115610c6957610c686109fb565b5b835b81811015610cb057803567ffffffffffffffff811115610c8e57610c8d6106f3565b5b808601610c9b898261080b565b85526020850194505050602081019050610c6b565b5050509392505050565b600082601f830112610ccf57610cce6106f3565b5b8135610cdf848260208601610c33565b91505092915050565b60008060408385031215610cff57610cfe6106e9565b5b600083013567ffffffffffffffff811115610d1d57610d1c6106ee565b5b610d2985828601610bd9565b925050602083013567ffffffffffffffff811115610d4a57610d496106ee565b5b610d5685828601610cba565b9150509250929050565b600082825260208201905092915050565b7f486173682076616c75652063616e6e6f7420626520656d707479000000000000600082015250565b6000610da7601a83610d60565b9150610db282610d71565b602082019050919050565b60006020820190508181036000830152610dd681610d9a565b9050919050565b600081905092915050565b6000610df382610882565b610dfd8185610ddd565b9350610e0d81856020860161089e565b80840191505092915050565b6000610e258284610de8565b915081905092915050565b7f4e487b7100000000000000000000000000000000000000000000000000000000600052602260045260246000fd5b60006002820490506001821680610e7757607f821691505b602082108103610e8a57610e89610e30565b5b50919050565b7f4365727469666963617465206e6f7420666f756e6420666f722074686520676960008201527f76656e2068617368000000000000000000000000000000000000000000000000602082015250565b6000610eec602883610d60565b9150610ef782610e90565b604082019050919050565b60006020820190508181036000830152610f1b81610edf565b9050919050565b7f4172726179206c656e6774687320646f206e6f74206d61746368000000000000600082015250565b6000610f58601a83610d60565b9150610f6382610f22565b602082019050919050565b60006020820190508181036000830152610f8781610f4b565b9050919050565b7f4e487b7100000000000000000000000000000000000000000000000000000000600052603260045260246000fd5b60008190508160005260206000209050919050565b60006020601f8301049050919050565b600082821b905092915050565b60006008830261101f7fffffffffffffffffffffffffffffffffffffffffffffffffffffffffffffffff82610fe2565b6110298683610fe2565b95508019841693508086168417925050509392505050565b6000819050919050565b6000819050919050565b600061107061106b61106684611041565b61104b565b611041565b9050919050565b6000819050919050565b61108a83611055565b61109e61109682611077565b848454610fef565b825550505050565b600090565b6110b36110a6565b6110be818484611081565b505050565b5b818110156110e2576110d76000826110ab565b6001810190506110c4565b5050565b601f821115611127576110f881610fbd565b61110184610fd2565b81016020851015611110578190505b61112461111c85610fd2565b8301826110c3565b50505b505050565b600082821c905092915050565b600061114a6000198460080261112c565b1980831691505092915050565b60006111638383611139565b9150826002028217905092915050565b61117c82610882565b67ffffffffffffffff8111156111955761119461070e565b5b61119f8254610e5f565b6111aa8282856110e6565b600060209050601f8311600181146111dd57600084156111cb578287015190505b6111d58582611157565b86555061123d565b601f1984166111eb86610fbd565b60005b82811015611213578489015182556001820191506020850194506020810190506111ee565b86831015611230578489015161122c601f891682611139565b8355505b6001600288020188555050505b505050505050565b7f4365727469666963617465206372656174696f6e20756e73756363657373667560008201527f6c00000000000000000000000000000000000000000000000000000000000000602082015250565b60006112a1602183610d60565b91506112ac82611245565b604082019050919050565b600060208201905081810360008301526112d081611294565b9050919050565b7f4e487b7100000000000000000000000000000000000000000000000000000000600052601160045260246000fd5b600061131182611041565b91507fffffffffffffffffffffffffffffffffffffffffffffffffffffffffffffffff8203611343576113426112d7565b5b60018201905091905056fea2646970667358221220456579f39575513be88508ef4c8d862bba8010b097110b54edbd782d70b230d664736f6c63430008130033",
  "immutableReferences": {},
  "source": "// SPDX-License-Identifier: MIT\r\n\r\npragma solidity >=0.4.16 <0.9.0;\r\n\r\ncontract Certifications {\r\n    struct certDetails {\r\n        string eventName;\r\n        string dateOfIssuance;\r\n        string recieverName;\r\n        string certificateId;\r\n        string organizationId;\r\n        string organizationName;\r\n    }\r\n\r\n    mapping(string => certDetails) private hashes;\r\n\r\n    function appendCertificates(certDetails[] memory _certificates, string[] memory _hashes) public {\r\n        require(_certificates.length == _hashes.length, \"Array lengths do not match\");\r\n\r\n        for (uint256 i = 0; i < _certificates.length; i++) {\r\n            hashes[_hashes[i]] = _certificates[i];\r\n            require(bytes(hashes[_hashes[i]].eventName).length > 0, \"Certificate creation unsuccessful\");\r\n        }\r\n    }\r\n\r\n    function verifyCertification(string memory _hash) public view returns (certDetails memory) {\r\n        require(bytes(_hash).length > 0, \"Hash value cannot be empty\");\r\n        require(bytes(hashes[_hash].eventName).length > 0, \"Certificate not found for the given hash\");\r\n        return hashes[_hash];\r\n    }\r\n}\r\n",
  "sourcePath": "E:\\BE Project\\DigiPramaan\\api\\contracts\\Certification.sol",
  "compiler": {
    "name": "solc",
    "version": "0.8.19+commit.7dd6d404.Emscripten.clang"
  },
  "schemaVersion": "3.4.16",
  "updatedAt": "2024-03-13T05:35:30.234Z",
  "devdoc": {
    "kind": "dev",
    "methods": {},
    "version": 1
  },
  "userdoc": {
    "kind": "user",
    "methods": {},
    "version": 1
  }
}