{
  "contractName": "Certifications",
  "abi": [
    {
      "inputs": [
        {
          "internalType": "string",
          "name": "_eventName",
          "type": "string"
        },
        {
          "internalType": "string",
          "name": "_dateOfIssuance",
          "type": "string"
        },
        {
          "internalType": "string",
          "name": "_recieverName",
          "type": "string"
        },
        {
          "internalType": "string",
          "name": "_recipientID",
          "type": "string"
        },
        {
          "internalType": "string",
          "name": "_organizationID",
          "type": "string"
        },
        {
          "internalType": "string",
          "name": "_organizationName",
          "type": "string"
        },
        {
          "internalType": "string",
          "name": "_hash",
          "type": "string"
        }
      ],
      "name": "appendCertificate",
      "outputs": [],
      "stateMutability": "nonpayable",
      "type": "function"
    },
    {
      "inputs": [
        {
          "internalType": "string",
          "name": "_hash",
          "type": "string"
        }
      ],
      "name": "verifyCertification",
      "outputs": [
        {
          "components": [
            {
              "internalType": "string",
              "name": "eventName",
              "type": "string"
            },
            {
              "internalType": "string",
              "name": "dateOfIssuance",
              "type": "string"
            },
            {
              "internalType": "string",
              "name": "recieverName",
              "type": "string"
            },
            {
              "internalType": "string",
              "name": "recipientID",
              "type": "string"
            },
            {
              "internalType": "string",
              "name": "organizationID",
              "type": "string"
            },
            {
              "internalType": "string",
              "name": "organizationName",
              "type": "string"
            }
          ],
          "internalType": "struct Certifications.certDetails",
          "name": "",
          "type": "tuple"
        }
      ],
      "stateMutability": "view",
      "type": "function",
      "constant": true
    }
  ],
  "bytecode": "0x608060405234801561001057600080fd5b50610fc6806100206000396000f3fe608060405234801561001057600080fd5b50600436106100365760003560e01c806373f538eb1461003b57806384c7912014610057575b600080fd5b610055600480360381019061005091906107b8565b610087565b005b610071600480360381019061006c919061091e565b6101d1565b60405161007e9190610a92565b60405180910390f35b6040518060c00160405280888152602001878152602001868152602001858152602001848152602001838152506000826040516100c49190610af0565b908152602001604051809103902060008201518160000190816100e79190610d1d565b5060208201518160010190816100fd9190610d1d565b5060408201518160020190816101139190610d1d565b5060608201518160030190816101299190610d1d565b50608082015181600401908161013f9190610d1d565b5060a08201518160050190816101559190610d1d565b509050506000808260405161016a9190610af0565b9081526020016040518091039020600001805461018690610b36565b9050116101c8576040517f08c379a00000000000000000000000000000000000000000000000000000000081526004016101bf90610e72565b60405180910390fd5b50505050505050565b6101d9610628565b600082511161021d576040517f08c379a000000000000000000000000000000000000000000000000000000000815260040161021490610ede565b60405180910390fd5b6000808360405161022e9190610af0565b9081526020016040518091039020600001805461024a90610b36565b90501161028c576040517f08c379a000000000000000000000000000000000000000000000000000000000815260040161028390610f70565b60405180910390fd5b60008260405161029c9190610af0565b90815260200160405180910390206040518060c00160405290816000820180546102c590610b36565b80601f01602080910402602001604051908101604052809291908181526020018280546102f190610b36565b801561033e5780601f106103135761010080835404028352916020019161033e565b820191906000526020600020905b81548152906001019060200180831161032157829003601f168201915b5050505050815260200160018201805461035790610b36565b80601f016020809104026020016040519081016040528092919081815260200182805461038390610b36565b80156103d05780601f106103a5576101008083540402835291602001916103d0565b820191906000526020600020905b8154815290600101906020018083116103b357829003601f168201915b505050505081526020016002820180546103e990610b36565b80601f016020809104026020016040519081016040528092919081815260200182805461041590610b36565b80156104625780601f1061043757610100808354040283529160200191610462565b820191906000526020600020905b81548152906001019060200180831161044557829003601f168201915b5050505050815260200160038201805461047b90610b36565b80601f01602080910402602001604051908101604052809291908181526020018280546104a790610b36565b80156104f45780601f106104c9576101008083540402835291602001916104f4565b820191906000526020600020905b8154815290600101906020018083116104d757829003601f168201915b5050505050815260200160048201805461050d90610b36565b80601f016020809104026020016040519081016040528092919081815260200182805461053990610b36565b80156105865780601f1061055b57610100808354040283529160200191610586565b820191906000526020600020905b81548152906001019060200180831161056957829003601f168201915b5050505050815260200160058201805461059f90610b36565b80601f01602080910402602001604051908101604052809291908181526020018280546105cb90610b36565b80156106185780601f106105ed57610100808354040283529160200191610618565b820191906000526020600020905b8154815290600101906020018083116105fb57829003601f168201915b5050505050815250509050919050565b6040518060c001604052806060815260200160608152602001606081526020016060815260200160608152602001606081525090565b6000604051905090565b600080fd5b600080fd5b600080fd5b600080fd5b6000601f19601f8301169050919050565b7f4e487b7100000000000000000000000000000000000000000000000000000000600052604160045260246000fd5b6106c58261067c565b810181811067ffffffffffffffff821117156106e4576106e361068d565b5b80604052505050565b60006106f761065e565b905061070382826106bc565b919050565b600067ffffffffffffffff8211156107235761072261068d565b5b61072c8261067c565b9050602081019050919050565b82818337600083830152505050565b600061075b61075684610708565b6106ed565b90508281526020810184848401111561077757610776610677565b5b610782848285610739565b509392505050565b600082601f83011261079f5761079e610672565b5b81356107af848260208601610748565b91505092915050565b600080600080600080600060e0888a0312156107d7576107d6610668565b5b600088013567ffffffffffffffff8111156107f5576107f461066d565b5b6108018a828b0161078a565b975050602088013567ffffffffffffffff8111156108225761082161066d565b5b61082e8a828b0161078a565b965050604088013567ffffffffffffffff81111561084f5761084e61066d565b5b61085b8a828b0161078a565b955050606088013567ffffffffffffffff81111561087c5761087b61066d565b5b6108888a828b0161078a565b945050608088013567ffffffffffffffff8111156108a9576108a861066d565b5b6108b58a828b0161078a565b93505060a088013567ffffffffffffffff8111156108d6576108d561066d565b5b6108e28a828b0161078a565b92505060c088013567ffffffffffffffff8111156109035761090261066d565b5b61090f8a828b0161078a565b91505092959891949750929550565b60006020828403121561093457610933610668565b5b600082013567ffffffffffffffff8111156109525761095161066d565b5b61095e8482850161078a565b91505092915050565b600081519050919050565b600082825260208201905092915050565b60005b838110156109a1578082015181840152602081019050610986565b60008484015250505050565b60006109b882610967565b6109c28185610972565b93506109d2818560208601610983565b6109db8161067c565b840191505092915050565b600060c0830160008301518482036000860152610a0382826109ad565b91505060208301518482036020860152610a1d82826109ad565b91505060408301518482036040860152610a3782826109ad565b91505060608301518482036060860152610a5182826109ad565b91505060808301518482036080860152610a6b82826109ad565b91505060a083015184820360a0860152610a8582826109ad565b9150508091505092915050565b60006020820190508181036000830152610aac81846109e6565b905092915050565b600081905092915050565b6000610aca82610967565b610ad48185610ab4565b9350610ae4818560208601610983565b80840191505092915050565b6000610afc8284610abf565b915081905092915050565b7f4e487b7100000000000000000000000000000000000000000000000000000000600052602260045260246000fd5b60006002820490506001821680610b4e57607f821691505b602082108103610b6157610b60610b07565b5b50919050565b60008190508160005260206000209050919050565b60006020601f8301049050919050565b600082821b905092915050565b600060088302610bc97fffffffffffffffffffffffffffffffffffffffffffffffffffffffffffffffff82610b8c565b610bd38683610b8c565b95508019841693508086168417925050509392505050565b6000819050919050565b6000819050919050565b6000610c1a610c15610c1084610beb565b610bf5565b610beb565b9050919050565b6000819050919050565b610c3483610bff565b610c48610c4082610c21565b848454610b99565b825550505050565b600090565b610c5d610c50565b610c68818484610c2b565b505050565b5b81811015610c8c57610c81600082610c55565b600181019050610c6e565b5050565b601f821115610cd157610ca281610b67565b610cab84610b7c565b81016020851015610cba578190505b610cce610cc685610b7c565b830182610c6d565b50505b505050565b600082821c905092915050565b6000610cf460001984600802610cd6565b1980831691505092915050565b6000610d0d8383610ce3565b9150826002028217905092915050565b610d2682610967565b67ffffffffffffffff811115610d3f57610d3e61068d565b5b610d498254610b36565b610d54828285610c90565b600060209050601f831160018114610d875760008415610d75578287015190505b610d7f8582610d01565b865550610de7565b601f198416610d9586610b67565b60005b82811015610dbd57848901518255600182019150602085019450602081019050610d98565b86831015610dda5784890151610dd6601f891682610ce3565b8355505b6001600288020188555050505b505050505050565b600082825260208201905092915050565b7f4365727469666963617465206372656174696f6e20756e73756363657373667560008201527f6c00000000000000000000000000000000000000000000000000000000000000602082015250565b6000610e5c602183610def565b9150610e6782610e00565b604082019050919050565b60006020820190508181036000830152610e8b81610e4f565b9050919050565b7f486173682076616c75652063616e6e6f7420626520656d707479000000000000600082015250565b6000610ec8601a83610def565b9150610ed382610e92565b602082019050919050565b60006020820190508181036000830152610ef781610ebb565b9050919050565b7f4365727469666963617465206e6f7420666f756e6420666f722074686520676960008201527f76656e2068617368000000000000000000000000000000000000000000000000602082015250565b6000610f5a602883610def565b9150610f6582610efe565b604082019050919050565b60006020820190508181036000830152610f8981610f4d565b905091905056fea2646970667358221220f16a12210d4d793272de308922d181c641a888364ed1ccdae4a2884af705482464736f6c63430008130033",
  "immutableReferences": {},
  "source": "// SPDX-License-Identifier: MIT\r\n\r\npragma solidity >=0.4.16 <0.9.0;\r\n\r\ncontract Certifications {\r\n    struct certDetails {\r\n        string eventName;\r\n        string dateOfIssuance;\r\n        string recieverName;\r\n        string recipientID;\r\n        string organizationID;\r\n        string organizationName;\r\n    }\r\n\r\n    mapping(string => certDetails) private hashes;\r\n\r\n    function appendCertificate(\r\n        string memory _eventName,\r\n        string memory _dateOfIssuance,\r\n        string memory _recieverName,\r\n        string memory _recipientID,\r\n        string memory _organizationID,\r\n        string memory _organizationName,\r\n        string memory _hash\r\n    ) public{\r\n        // Adding given certificate data to the blockchain\r\n        hashes[_hash] = certDetails(\r\n            _eventName,\r\n            _dateOfIssuance,\r\n            _recieverName,\r\n            _recipientID,\r\n            _organizationID,\r\n            _organizationName\r\n        );\r\n\r\n        require(bytes(hashes[_hash].eventName).length > 0, \"Certificate creation unsuccessful\");\r\n    }\r\n\r\n    function verifyCertification(\r\n        string memory _hash\r\n    ) public view returns (certDetails memory) {\r\n        require(bytes(_hash).length > 0, \"Hash value cannot be empty\");\r\n\r\n        require(\r\n            bytes(hashes[_hash].eventName).length > 0,\r\n            \"Certificate not found for the given hash\"\r\n        );\r\n\r\n        return hashes[_hash];\r\n    }\r\n}\r\n",
  "sourcePath": "E:\\BE Project\\DigiPramaan\\api\\contracts\\Certification.sol",
  "compiler": {
    "name": "solc",
    "version": "0.8.19+commit.7dd6d404.Emscripten.clang"
  },
  "schemaVersion": "3.4.16",
  "updatedAt": "2024-03-10T16:26:42.195Z",
  "networkType": "ethereum",
  "devdoc": {
    "kind": "dev",
    "methods": {},
    "version": 1
  },
  "userdoc": {
    "kind": "user",
    "methods": {},
    "version": 1
  }
}