{
  "contractName": "Certifications",
  "abi": [
    {
      "inputs": [
        {
          "internalType": "string",
          "name": "_eventName",
          "type": "string"
        },
        {
          "internalType": "string",
          "name": "_dateOfIssuance",
          "type": "string"
        },
        {
          "internalType": "string",
          "name": "_issuerName",
          "type": "string"
        },
        {
          "internalType": "int256",
          "name": "_issuerID",
          "type": "int256"
        },
        {
          "internalType": "string",
          "name": "_recieverName",
          "type": "string"
        },
        {
          "internalType": "int256",
          "name": "_recipientID",
          "type": "int256"
        },
        {
          "internalType": "int256",
          "name": "_organizationID",
          "type": "int256"
        },
        {
          "internalType": "string",
          "name": "_organizationName",
          "type": "string"
        },
        {
          "internalType": "string",
          "name": "_hash",
          "type": "string"
        }
      ],
      "name": "appendCertificate",
      "outputs": [],
      "stateMutability": "nonpayable",
      "type": "function"
    },
    {
      "inputs": [
        {
          "internalType": "string",
          "name": "_hash",
          "type": "string"
        }
      ],
      "name": "verifyCertification",
      "outputs": [
        {
          "components": [
            {
              "internalType": "string",
              "name": "eventName",
              "type": "string"
            },
            {
              "internalType": "string",
              "name": "dateOfIssuance",
              "type": "string"
            },
            {
              "internalType": "string",
              "name": "issuerName",
              "type": "string"
            },
            {
              "internalType": "int256",
              "name": "issuerID",
              "type": "int256"
            },
            {
              "internalType": "string",
              "name": "recieverName",
              "type": "string"
            },
            {
              "internalType": "int256",
              "name": "recipientID",
              "type": "int256"
            },
            {
              "internalType": "int256",
              "name": "organizationID",
              "type": "int256"
            },
            {
              "internalType": "string",
              "name": "organizationName",
              "type": "string"
            }
          ],
          "internalType": "struct Certifications.certDetails",
          "name": "",
          "type": "tuple"
        }
      ],
      "stateMutability": "view",
      "type": "function",
      "constant": true
    }
  ],
  "bytecode": "0x608060405234801561001057600080fd5b50610fea806100206000396000f3fe608060405234801561001057600080fd5b50600436106100365760003560e01c806384c791201461003b578063cd33b2de1461006b575b600080fd5b6100556004803603810190610050919061076b565b610087565b6040516100629190610918565b60405180910390f35b61008560048036038101906100809190610966565b61046b565b005b61008f6105cc565b60008251116100d3576040517f08c379a00000000000000000000000000000000000000000000000000000000081526004016100ca90610b35565b60405180910390fd5b600080836040516100e49190610b91565b9081526020016040518091039020600001805461010090610bd7565b905011610142576040517f08c379a000000000000000000000000000000000000000000000000000000000815260040161013990610c7a565b60405180910390fd5b6000826040516101529190610b91565b90815260200160405180910390206040518061010001604052908160008201805461017c90610bd7565b80601f01602080910402602001604051908101604052809291908181526020018280546101a890610bd7565b80156101f55780601f106101ca576101008083540402835291602001916101f5565b820191906000526020600020905b8154815290600101906020018083116101d857829003601f168201915b5050505050815260200160018201805461020e90610bd7565b80601f016020809104026020016040519081016040528092919081815260200182805461023a90610bd7565b80156102875780601f1061025c57610100808354040283529160200191610287565b820191906000526020600020905b81548152906001019060200180831161026a57829003601f168201915b505050505081526020016002820180546102a090610bd7565b80601f01602080910402602001604051908101604052809291908181526020018280546102cc90610bd7565b80156103195780601f106102ee57610100808354040283529160200191610319565b820191906000526020600020905b8154815290600101906020018083116102fc57829003601f168201915b505050505081526020016003820154815260200160048201805461033c90610bd7565b80601f016020809104026020016040519081016040528092919081815260200182805461036890610bd7565b80156103b55780601f1061038a576101008083540402835291602001916103b5565b820191906000526020600020905b81548152906001019060200180831161039857829003601f168201915b5050505050815260200160058201548152602001600682015481526020016007820180546103e290610bd7565b80601f016020809104026020016040519081016040528092919081815260200182805461040e90610bd7565b801561045b5780601f106104305761010080835404028352916020019161045b565b820191906000526020600020905b81548152906001019060200180831161043e57829003601f168201915b5050505050815250509050919050565b6040518061010001604052808a8152602001898152602001888152602001878152602001868152602001858152602001848152602001838152506000826040516104b59190610b91565b908152602001604051809103902060008201518160000190816104d89190610e50565b5060208201518160010190816104ee9190610e50565b5060408201518160020190816105049190610e50565b506060820151816003015560808201518160040190816105249190610e50565b5060a0820151816005015560c0820151816006015560e082015181600701908161054e9190610e50565b50905050600080826040516105639190610b91565b9081526020016040518091039020600001805461057f90610bd7565b9050116105c1576040517f08c379a00000000000000000000000000000000000000000000000000000000081526004016105b890610f94565b60405180910390fd5b505050505050505050565b60405180610100016040528060608152602001606081526020016060815260200160008152602001606081526020016000815260200160008152602001606081525090565b6000604051905090565b600080fd5b600080fd5b600080fd5b600080fd5b6000601f19601f8301169050919050565b7f4e487b7100000000000000000000000000000000000000000000000000000000600052604160045260246000fd5b6106788261062f565b810181811067ffffffffffffffff8211171561069757610696610640565b5b80604052505050565b60006106aa610611565b90506106b6828261066f565b919050565b600067ffffffffffffffff8211156106d6576106d5610640565b5b6106df8261062f565b9050602081019050919050565b82818337600083830152505050565b600061070e610709846106bb565b6106a0565b90508281526020810184848401111561072a5761072961062a565b5b6107358482856106ec565b509392505050565b600082601f83011261075257610751610625565b5b81356107628482602086016106fb565b91505092915050565b6000602082840312156107815761078061061b565b5b600082013567ffffffffffffffff81111561079f5761079e610620565b5b6107ab8482850161073d565b91505092915050565b600081519050919050565b600082825260208201905092915050565b60005b838110156107ee5780820151818401526020810190506107d3565b60008484015250505050565b6000610805826107b4565b61080f81856107bf565b935061081f8185602086016107d0565b6108288161062f565b840191505092915050565b6000819050919050565b61084681610833565b82525050565b600061010083016000830151848203600086015261086a82826107fa565b9150506020830151848203602086015261088482826107fa565b9150506040830151848203604086015261089e82826107fa565b91505060608301516108b3606086018261083d565b50608083015184820360808601526108cb82826107fa565b91505060a08301516108e060a086018261083d565b5060c08301516108f360c086018261083d565b5060e083015184820360e086015261090b82826107fa565b9150508091505092915050565b60006020820190508181036000830152610932818461084c565b905092915050565b61094381610833565b811461094e57600080fd5b50565b6000813590506109608161093a565b92915050565b60008060008060008060008060006101208a8c0312156109895761098861061b565b5b60008a013567ffffffffffffffff8111156109a7576109a6610620565b5b6109b38c828d0161073d565b99505060208a013567ffffffffffffffff8111156109d4576109d3610620565b5b6109e08c828d0161073d565b98505060408a013567ffffffffffffffff811115610a0157610a00610620565b5b610a0d8c828d0161073d565b9750506060610a1e8c828d01610951565b96505060808a013567ffffffffffffffff811115610a3f57610a3e610620565b5b610a4b8c828d0161073d565b95505060a0610a5c8c828d01610951565b94505060c0610a6d8c828d01610951565b93505060e08a013567ffffffffffffffff811115610a8e57610a8d610620565b5b610a9a8c828d0161073d565b9250506101008a013567ffffffffffffffff811115610abc57610abb610620565b5b610ac88c828d0161073d565b9150509295985092959850929598565b600082825260208201905092915050565b7f486173682076616c75652063616e6e6f7420626520656d707479000000000000600082015250565b6000610b1f601a83610ad8565b9150610b2a82610ae9565b602082019050919050565b60006020820190508181036000830152610b4e81610b12565b9050919050565b600081905092915050565b6000610b6b826107b4565b610b758185610b55565b9350610b858185602086016107d0565b80840191505092915050565b6000610b9d8284610b60565b915081905092915050565b7f4e487b7100000000000000000000000000000000000000000000000000000000600052602260045260246000fd5b60006002820490506001821680610bef57607f821691505b602082108103610c0257610c01610ba8565b5b50919050565b7f4365727469666963617465206e6f7420666f756e6420666f722074686520676960008201527f76656e2068617368000000000000000000000000000000000000000000000000602082015250565b6000610c64602883610ad8565b9150610c6f82610c08565b604082019050919050565b60006020820190508181036000830152610c9381610c57565b9050919050565b60008190508160005260206000209050919050565b60006020601f8301049050919050565b600082821b905092915050565b600060088302610cfc7fffffffffffffffffffffffffffffffffffffffffffffffffffffffffffffffff82610cbf565b610d068683610cbf565b95508019841693508086168417925050509392505050565b6000819050919050565b6000819050919050565b6000610d4d610d48610d4384610d1e565b610d28565b610d1e565b9050919050565b6000819050919050565b610d6783610d32565b610d7b610d7382610d54565b848454610ccc565b825550505050565b600090565b610d90610d83565b610d9b818484610d5e565b505050565b5b81811015610dbf57610db4600082610d88565b600181019050610da1565b5050565b601f821115610e0457610dd581610c9a565b610dde84610caf565b81016020851015610ded578190505b610e01610df985610caf565b830182610da0565b50505b505050565b600082821c905092915050565b6000610e2760001984600802610e09565b1980831691505092915050565b6000610e408383610e16565b9150826002028217905092915050565b610e59826107b4565b67ffffffffffffffff811115610e7257610e71610640565b5b610e7c8254610bd7565b610e87828285610dc3565b600060209050601f831160018114610eba5760008415610ea8578287015190505b610eb28582610e34565b865550610f1a565b601f198416610ec886610c9a565b60005b82811015610ef057848901518255600182019150602085019450602081019050610ecb565b86831015610f0d5784890151610f09601f891682610e16565b8355505b6001600288020188555050505b505050505050565b7f4365727469666963617465206372656174696f6e20756e73756363657373667560008201527f6c00000000000000000000000000000000000000000000000000000000000000602082015250565b6000610f7e602183610ad8565b9150610f8982610f22565b604082019050919050565b60006020820190508181036000830152610fad81610f71565b905091905056fea2646970667358221220ca05ebebcdc435d9602bfdadea199900b43dd626224cc00be8ce599a1927183a64736f6c63430008130033",
  "immutableReferences": {},
  "source": "// SPDX-License-Identifier: MIT\r\n\r\npragma solidity >=0.4.16 <0.9.0;\r\n\r\ncontract Certifications {\r\n    struct certDetails {\r\n        string eventName;\r\n        string dateOfIssuance;\r\n        string issuerName;\r\n        int256 issuerID;\r\n        string recieverName;\r\n        int256 recipientID;\r\n        int256 organizationID;\r\n        string organizationName;\r\n    }\r\n\r\n    mapping(string => certDetails) private hashes;\r\n\r\n    function appendCertificate(\r\n        string memory _eventName,\r\n        string memory _dateOfIssuance,\r\n        string memory _issuerName,\r\n        int256 _issuerID,\r\n        string memory _recieverName,\r\n        int256 _recipientID,\r\n        int256 _organizationID,\r\n        string memory _organizationName,\r\n        string memory _hash\r\n    ) public{\r\n        // Adding given certificate data to the blockchain\r\n        hashes[_hash] = certDetails(\r\n            _eventName,\r\n            _dateOfIssuance,\r\n            _issuerName,\r\n            _issuerID,\r\n            _recieverName,\r\n            _recipientID,\r\n            _organizationID,\r\n            _organizationName\r\n        );\r\n\r\n        require(bytes(hashes[_hash].eventName).length > 0, \"Certificate creation unsuccessful\");\r\n    }\r\n\r\n    function verifyCertification(\r\n        string memory _hash\r\n    ) public view returns (certDetails memory) {\r\n        require(bytes(_hash).length > 0, \"Hash value cannot be empty\");\r\n\r\n        require(\r\n            bytes(hashes[_hash].eventName).length > 0,\r\n            \"Certificate not found for the given hash\"\r\n        );\r\n\r\n        return hashes[_hash];\r\n    }\r\n}\r\n",
  "sourcePath": "E:\\BE Project\\DigiPramaan\\digiPramaan\\api\\contracts\\Certification.sol",
  "compiler": {
    "name": "solc",
    "version": "0.8.19+commit.7dd6d404.Emscripten.clang"
  },
  "schemaVersion": "3.4.16",
  "updatedAt": "2024-02-19T08:17:37.414Z",
  "networkType": "ethereum",
  "devdoc": {
    "kind": "dev",
    "methods": {},
    "version": 1
  },
  "userdoc": {
    "kind": "user",
    "methods": {},
    "version": 1
  }
}