{
  "contractName": "Certifications",
  "abi": [
    {
      "inputs": [],
      "stateMutability": "nonpayable",
      "type": "constructor"
    },
    {
      "inputs": [],
      "name": "destroy",
      "outputs": [],
      "stateMutability": "nonpayable",
      "type": "function"
    },
    {
      "inputs": [
        {
          "components": [
            {
              "internalType": "string",
              "name": "eventName",
              "type": "string"
            },
            {
              "internalType": "string",
              "name": "dateOfIssuance",
              "type": "string"
            },
            {
              "internalType": "string",
              "name": "receiverName",
              "type": "string"
            },
            {
              "internalType": "string",
              "name": "certificateId",
              "type": "string"
            },
            {
              "internalType": "string",
              "name": "organizationId",
              "type": "string"
            },
            {
              "internalType": "string",
              "name": "organizationName",
              "type": "string"
            }
          ],
          "internalType": "struct Certifications.certDetails[]",
          "name": "_certificates",
          "type": "tuple[]"
        },
        {
          "internalType": "string[]",
          "name": "_hashes",
          "type": "string[]"
        }
      ],
      "name": "appendCertificates",
      "outputs": [],
      "stateMutability": "nonpayable",
      "type": "function"
    },
    {
      "inputs": [
        {
          "internalType": "string",
          "name": "_hash",
          "type": "string"
        }
      ],
      "name": "verifyCertification",
      "outputs": [
        {
          "components": [
            {
              "internalType": "string",
              "name": "eventName",
              "type": "string"
            },
            {
              "internalType": "string",
              "name": "dateOfIssuance",
              "type": "string"
            },
            {
              "internalType": "string",
              "name": "receiverName",
              "type": "string"
            },
            {
              "internalType": "string",
              "name": "certificateId",
              "type": "string"
            },
            {
              "internalType": "string",
              "name": "organizationId",
              "type": "string"
            },
            {
              "internalType": "string",
              "name": "organizationName",
              "type": "string"
            }
          ],
          "internalType": "struct Certifications.certDetails",
          "name": "",
          "type": "tuple"
        }
      ],
      "stateMutability": "view",
      "type": "function"
    }
  ],
  "bytecode": "0x608060405234801561001057600080fd5b5033600160006101000a81548173ffffffffffffffffffffffffffffffffffffffff021916908373ffffffffffffffffffffffffffffffffffffffff1602179055506114f6806100616000396000f3fe608060405234801561001057600080fd5b50600436106100415760003560e01c806383197ef01461004657806384c7912014610050578063b09f3d8914610080575b600080fd5b61004e61009c565b005b61006a60048036038101906100659190610919565b610167565b6040516100779190610a8d565b60405180910390f35b61009a60048036038101906100959190610dc8565b6105be565b005b600160009054906101000a900473ffffffffffffffffffffffffffffffffffffffff1673ffffffffffffffffffffffffffffffffffffffff163373ffffffffffffffffffffffffffffffffffffffff161461012c576040517f08c379a000000000000000000000000000000000000000000000000000000000815260040161012390610ec3565b60405180910390fd5b600160009054906101000a900473ffffffffffffffffffffffffffffffffffffffff1673ffffffffffffffffffffffffffffffffffffffff16ff5b61016f610789565b60008251116101b3576040517f08c379a00000000000000000000000000000000000000000000000000000000081526004016101aa90610f2f565b60405180910390fd5b600080836040516101c49190610f8b565b908152602001604051809103902060000180546101e090610fd1565b905011610222576040517f08c379a000000000000000000000000000000000000000000000000000000000815260040161021990611074565b60405180910390fd5b6000826040516102329190610f8b565b90815260200160405180910390206040518060c001604052908160008201805461025b90610fd1565b80601f016020809104026020016040519081016040528092919081815260200182805461028790610fd1565b80156102d45780601f106102a9576101008083540402835291602001916102d4565b820191906000526020600020905b8154815290600101906020018083116102b757829003601f168201915b505050505081526020016001820180546102ed90610fd1565b80601f016020809104026020016040519081016040528092919081815260200182805461031990610fd1565b80156103665780601f1061033b57610100808354040283529160200191610366565b820191906000526020600020905b81548152906001019060200180831161034957829003601f168201915b5050505050815260200160028201805461037f90610fd1565b80601f01602080910402602001604051908101604052809291908181526020018280546103ab90610fd1565b80156103f85780601f106103cd576101008083540402835291602001916103f8565b820191906000526020600020905b8154815290600101906020018083116103db57829003601f168201915b5050505050815260200160038201805461041190610fd1565b80601f016020809104026020016040519081016040528092919081815260200182805461043d90610fd1565b801561048a5780601f1061045f5761010080835404028352916020019161048a565b820191906000526020600020905b81548152906001019060200180831161046d57829003601f168201915b505050505081526020016004820180546104a390610fd1565b80601f01602080910402602001604051908101604052809291908181526020018280546104cf90610fd1565b801561051c5780601f106104f15761010080835404028352916020019161051c565b820191906000526020600020905b8154815290600101906020018083116104ff57829003601f168201915b5050505050815260200160058201805461053590610fd1565b80601f016020809104026020016040519081016040528092919081815260200182805461056190610fd1565b80156105ae5780601f10610583576101008083540402835291602001916105ae565b820191906000526020600020905b81548152906001019060200180831161059157829003601f168201915b5050505050815250509050919050565b8051825114610602576040517f08c379a00000000000000000000000000000000000000000000000000000000081526004016105f9906110e0565b60405180910390fd5b60005b82518110156107845782818151811061062157610620611100565b5b6020026020010151600083838151811061063e5761063d611100565b5b60200260200101516040516106539190610f8b565b9081526020016040518091039020600082015181600001908161067691906112e5565b50602082015181600101908161068c91906112e5565b5060408201518160020190816106a291906112e5565b5060608201518160030190816106b891906112e5565b5060808201518160040190816106ce91906112e5565b5060a08201518160050190816106e491906112e5565b509050506000808383815181106106fe576106fd611100565b5b60200260200101516040516107139190610f8b565b9081526020016040518091039020600001805461072f90610fd1565b905011610771576040517f08c379a000000000000000000000000000000000000000000000000000000000815260040161076890611429565b60405180910390fd5b808061077c90611478565b915050610605565b505050565b6040518060c001604052806060815260200160608152602001606081526020016060815260200160608152602001606081525090565b6000604051905090565b600080fd5b600080fd5b600080fd5b600080fd5b6000601f19601f8301169050919050565b7f4e487b7100000000000000000000000000000000000000000000000000000000600052604160045260246000fd5b610826826107dd565b810181811067ffffffffffffffff82111715610845576108446107ee565b5b80604052505050565b60006108586107bf565b9050610864828261081d565b919050565b600067ffffffffffffffff821115610884576108836107ee565b5b61088d826107dd565b9050602081019050919050565b82818337600083830152505050565b60006108bc6108b784610869565b61084e565b9050828152602081018484840111156108d8576108d76107d8565b5b6108e384828561089a565b509392505050565b600082601f830112610900576108ff6107d3565b5b81356109108482602086016108a9565b91505092915050565b60006020828403121561092f5761092e6107c9565b5b600082013567ffffffffffffffff81111561094d5761094c6107ce565b5b610959848285016108eb565b91505092915050565b600081519050919050565b600082825260208201905092915050565b60005b8381101561099c578082015181840152602081019050610981565b60008484015250505050565b60006109b382610962565b6109bd818561096d565b93506109cd81856020860161097e565b6109d6816107dd565b840191505092915050565b600060c08301600083015184820360008601526109fe82826109a8565b91505060208301518482036020860152610a1882826109a8565b91505060408301518482036040860152610a3282826109a8565b91505060608301518482036060860152610a4c82826109a8565b91505060808301518482036080860152610a6682826109a8565b91505060a083015184820360a0860152610a8082826109a8565b9150508091505092915050565b60006020820190508181036000830152610aa781846109e1565b905092915050565b600067ffffffffffffffff821115610aca57610ac96107ee565b5b602082029050602081019050919050565b600080fd5b600080fd5b600080fd5b600060c08284031215610b0057610aff610ae0565b5b610b0a60c061084e565b9050600082013567ffffffffffffffff811115610b2a57610b29610ae5565b5b610b36848285016108eb565b600083015250602082013567ffffffffffffffff811115610b5a57610b59610ae5565b5b610b66848285016108eb565b602083015250604082013567ffffffffffffffff811115610b8a57610b89610ae5565b5b610b96848285016108eb565b604083015250606082013567ffffffffffffffff811115610bba57610bb9610ae5565b5b610bc6848285016108eb565b606083015250608082013567ffffffffffffffff811115610bea57610be9610ae5565b5b610bf6848285016108eb565b60808301525060a082013567ffffffffffffffff811115610c1a57610c19610ae5565b5b610c26848285016108eb565b60a08301525092915050565b6000610c45610c4084610aaf565b61084e565b90508083825260208201905060208402830185811115610c6857610c67610adb565b5b835b81811015610caf57803567ffffffffffffffff811115610c8d57610c8c6107d3565b5b808601610c9a8982610aea565b85526020850194505050602081019050610c6a565b5050509392505050565b600082601f830112610cce57610ccd6107d3565b5b8135610cde848260208601610c32565b91505092915050565b600067ffffffffffffffff821115610d0257610d016107ee565b5b602082029050602081019050919050565b6000610d26610d2184610ce7565b61084e565b90508083825260208201905060208402830185811115610d4957610d48610adb565b5b835b81811015610d9057803567ffffffffffffffff811115610d6e57610d6d6107d3565b5b808601610d7b89826108eb565b85526020850194505050602081019050610d4b565b5050509392505050565b600082601f830112610daf57610dae6107d3565b5b8135610dbf848260208601610d13565b91505092915050565b60008060408385031215610ddf57610dde6107c9565b5b600083013567ffffffffffffffff811115610dfd57610dfc6107ce565b5b610e0985828601610cb9565b925050602083013567ffffffffffffffff811115610e2a57610e296107ce565b5b610e3685828601610d9a565b9150509250929050565b600082825260208201905092915050565b7f4f6e6c792074686520636f6e7472616374206f776e65722063616e206465737460008201527f726f792074686520636f6e747261637400000000000000000000000000000000602082015250565b6000610ead603083610e40565b9150610eb882610e51565b604082019050919050565b60006020820190508181036000830152610edc81610ea0565b9050919050565b7f486173682076616c75652063616e6e6f7420626520656d707479000000000000600082015250565b6000610f19601a83610e40565b9150610f2482610ee3565b602082019050919050565b60006020820190508181036000830152610f4881610f0c565b9050919050565b600081905092915050565b6000610f6582610962565b610f6f8185610f4f565b9350610f7f81856020860161097e565b80840191505092915050565b6000610f978284610f5a565b915081905092915050565b7f4e487b7100000000000000000000000000000000000000000000000000000000600052602260045260246000fd5b60006002820490506001821680610fe957607f821691505b602082108103610ffc57610ffb610fa2565b5b50919050565b7f4365727469666963617465206e6f7420666f756e6420666f722074686520676960008201527f76656e2068617368000000000000000000000000000000000000000000000000602082015250565b600061105e602883610e40565b915061106982611002565b604082019050919050565b6000602082019050818103600083015261108d81611051565b9050919050565b7f4172726179206c656e6774687320646f206e6f74206d61746368000000000000600082015250565b60006110ca601a83610e40565b91506110d582611094565b602082019050919050565b600060208201905081810360008301526110f9816110bd565b9050919050565b7f4e487b7100000000000000000000000000000000000000000000000000000000600052603260045260246000fd5b60008190508160005260206000209050919050565b60006020601f8301049050919050565b600082821b905092915050565b6000600883026111917fffffffffffffffffffffffffffffffffffffffffffffffffffffffffffffffff82611154565b61119b8683611154565b95508019841693508086168417925050509392505050565b6000819050919050565b6000819050919050565b60006111e26111dd6111d8846111b3565b6111bd565b6111b3565b9050919050565b6000819050919050565b6111fc836111c7565b611210611208826111e9565b848454611161565b825550505050565b600090565b611225611218565b6112308184846111f3565b505050565b5b818110156112545761124960008261121d565b600181019050611236565b5050565b601f8211156112995761126a8161112f565b61127384611144565b81016020851015611282578190505b61129661128e85611144565b830182611235565b50505b505050565b600082821c905092915050565b60006112bc6000198460080261129e565b1980831691505092915050565b60006112d583836112ab565b9150826002028217905092915050565b6112ee82610962565b67ffffffffffffffff811115611307576113066107ee565b5b6113118254610fd1565b61131c828285611258565b600060209050601f83116001811461134f576000841561133d578287015190505b61134785826112c9565b8655506113af565b601f19841661135d8661112f565b60005b8281101561138557848901518255600182019150602085019450602081019050611360565b868310156113a2578489015161139e601f8916826112ab565b8355505b6001600288020188555050505b505050505050565b7f4365727469666963617465206372656174696f6e20756e73756363657373667560008201527f6c00000000000000000000000000000000000000000000000000000000000000602082015250565b6000611413602183610e40565b915061141e826113b7565b604082019050919050565b6000602082019050818103600083015261144281611406565b9050919050565b7f4e487b7100000000000000000000000000000000000000000000000000000000600052601160045260246000fd5b6000611483826111b3565b91507fffffffffffffffffffffffffffffffffffffffffffffffffffffffffffffffff82036114b5576114b4611449565b5b60018201905091905056fea2646970667358221220075c8b8fd13f56c0580f50e68fc39f1061b268dd3fe7632e63a98443d298256e64736f6c63430008130033",
  "immutableReferences": {},
  "source": "// SPDX-License-Identifier: MIT\r\n\r\npragma solidity >=0.4.16 <0.9.0;\r\n\r\ncontract Certifications {\r\n    struct certDetails {\r\n        string eventName;\r\n        string dateOfIssuance;\r\n        string receiverName;\r\n        string certificateId;\r\n        string organizationId;\r\n        string organizationName;\r\n    }\r\n\r\n    mapping(string => certDetails) private hashes;\r\n    address private owner;\r\n\r\n    constructor() {\r\n        owner = msg.sender;\r\n    }\r\n\r\n    function destroy() public {\r\n        require(\r\n            msg.sender == owner,\r\n            \"Only the contract owner can destroy the contract\"\r\n        );\r\n        selfdestruct(payable(owner));\r\n    }\r\n\r\n    function appendCertificates(\r\n        certDetails[] memory _certificates,\r\n        string[] memory _hashes\r\n    ) public {\r\n        require(\r\n            _certificates.length == _hashes.length,\r\n            \"Array lengths do not match\"\r\n        );\r\n\r\n        for (uint256 i = 0; i < _certificates.length; i++) {\r\n            hashes[_hashes[i]] = _certificates[i];\r\n            require(\r\n                bytes(hashes[_hashes[i]].eventName).length > 0,\r\n                \"Certificate creation unsuccessful\"\r\n            );\r\n        }\r\n    }\r\n\r\n    function verifyCertification(\r\n        string memory _hash\r\n    ) public view returns (certDetails memory) {\r\n        require(bytes(_hash).length > 0, \"Hash value cannot be empty\");\r\n        require(\r\n            bytes(hashes[_hash].eventName).length > 0,\r\n            \"Certificate not found for the given hash\"\r\n        );\r\n        return hashes[_hash];\r\n    }\r\n}\r\n",
  "sourcePath": "E:\\BE Project\\DigiPramaan\\api\\contracts\\Certification.sol",
  "compiler": {
    "name": "solc",
    "version": "0.8.19+commit.7dd6d404.Emscripten.clang"
  },
  "schemaVersion": "3.4.16",
  "updatedAt": "2024-04-16T04:53:45.059Z",
  "devdoc": {
    "kind": "dev",
    "methods": {},
    "version": 1
  },
  "userdoc": {
    "kind": "user",
    "methods": {},
    "version": 1
  }
}